{
  "_format": "hh-sol-artifact-1",
  "contractName": "WavePortal",
  "sourceName": "contracts/WavePortal.sol",
  "abi": [
    {
      "inputs": [],
      "stateMutability": "payable",
      "type": "constructor"
    },
    {
      "anonymous": false,
      "inputs": [
        {
          "indexed": true,
          "internalType": "address",
          "name": "from",
          "type": "address"
        },
        {
          "indexed": false,
          "internalType": "uint256",
          "name": "timestamp",
          "type": "uint256"
        },
        {
          "indexed": false,
          "internalType": "string",
          "name": "message",
          "type": "string"
        }
      ],
      "name": "NewWave",
      "type": "event"
    },
    {
      "inputs": [],
      "name": "getAllWaves",
      "outputs": [
        {
          "components": [
            {
              "internalType": "address",
              "name": "waver",
              "type": "address"
            },
            {
              "internalType": "string",
              "name": "message",
              "type": "string"
            },
            {
              "internalType": "uint256",
              "name": "timestamp",
              "type": "uint256"
            }
          ],
          "internalType": "struct WavePortal.Wave[]",
          "name": "",
          "type": "tuple[]"
        }
      ],
      "stateMutability": "view",
      "type": "function"
    },
    {
      "inputs": [],
      "name": "getTotalWaveCount",
      "outputs": [
        {
          "internalType": "uint256",
          "name": "",
          "type": "uint256"
        }
      ],
      "stateMutability": "view",
      "type": "function"
    },
    {
      "inputs": [
        {
          "internalType": "address",
          "name": "",
          "type": "address"
        }
      ],
      "name": "lastWavedAt",
      "outputs": [
        {
          "internalType": "uint256",
          "name": "",
          "type": "uint256"
        }
      ],
      "stateMutability": "view",
      "type": "function"
    },
    {
      "inputs": [
        {
          "internalType": "string",
          "name": "_message",
          "type": "string"
        }
      ],
      "name": "wave",
      "outputs": [],
      "stateMutability": "nonpayable",
      "type": "function"
    }
  ],
  "bytecode": "0x6080604052606444426200001491906200002c565b62000020919062000093565b60018190555062000129565b6000620000398262000089565b9150620000468362000089565b9250827fffffffffffffffffffffffffffffffffffffffffffffffffffffffffffffffff038211156200007e576200007d620000cb565b5b828201905092915050565b6000819050919050565b6000620000a08262000089565b9150620000ad8362000089565b925082620000c057620000bf620000fa565b5b828206905092915050565b7f4e487b7100000000000000000000000000000000000000000000000000000000600052601160045260246000fd5b7f4e487b7100000000000000000000000000000000000000000000000000000000600052601260045260246000fd5b6111e680620001396000396000f3fe608060405234801561001057600080fd5b506004361061004c5760003560e01c80631990ff9314610051578063449d46c01461006f578063a42a46631461008b578063bd43a908146100bb575b600080fd5b6100596100d9565b6040516100669190610d62565b60405180910390f35b610089600480360381019061008491906109d2565b610124565b005b6100a560048036038101906100a091906109a9565b610520565b6040516100b29190610d62565b60405180910390f35b6100c3610538565b6040516100d09190610c3b565b60405180910390f35b600061011c6040518060400160405280601781526020017f5765206861766520256420746f74616c20776176657321000000000000000000815250600054610689565b600054905090565b42601e600360003373ffffffffffffffffffffffffffffffffffffffff1673ffffffffffffffffffffffffffffffffffffffff168152602001908152602001600020546101719190610e74565b106101b1576040517f08c379a00000000000000000000000000000000000000000000000000000000081526004016101a890610d42565b60405180910390fd5b42600360003373ffffffffffffffffffffffffffffffffffffffff1673ffffffffffffffffffffffffffffffffffffffff1681526020019081526020016000208190555060016000808282546102079190610e74565b9250508190555061024e6040518060400160405280601681526020017f257320776176656420772f206d657373616765202573000000000000000000008152503383610725565b600260405180606001604052803373ffffffffffffffffffffffffffffffffffffffff16815260200183815260200142815250908060018154018082558091505060019003906000526020600020906003020160009091909190915060008201518160000160006101000a81548173ffffffffffffffffffffffffffffffffffffffff021916908373ffffffffffffffffffffffffffffffffffffffff160217905550602082015181600101908051906020019061030d929190610889565b506040820151816002015550506064600154424461032b9190610e74565b6103359190610e74565b61033f9190610fab565b6001819055506103866040518060400160405280601681526020017f52616e646f6d20232067656e6572617465643a20256400000000000000000000815250600154610689565b603260015410156104cd576103d06040518060400160405280600781526020017f257320776f6e2100000000000000000000000000000000000000000000000000815250336107c4565b6000655af3107a400090504781111561041e576040517f08c379a000000000000000000000000000000000000000000000000000000000815260040161041590610d02565b60405180910390fd5b60003373ffffffffffffffffffffffffffffffffffffffff168260405161044490610c26565b60006040518083038185875af1925050503d8060008114610481576040519150601f19603f3d011682016040523d82523d6000602084013e610486565b606091505b50509050806104ca576040517f08c379a00000000000000000000000000000000000000000000000000000000081526004016104c190610d22565b60405180910390fd5b50505b3373ffffffffffffffffffffffffffffffffffffffff167f5f7e16dc676677766a70e9c5628aa6c54ddb8b6e5188e2ae1e1f17f1ffbea7164283604051610515929190610d7d565b60405180910390a250565b60036020528060005260406000206000915090505481565b60606002805480602002602001604051908101604052809291908181526020016000905b8282101561068057838290600052602060002090600302016040518060600160405290816000820160009054906101000a900473ffffffffffffffffffffffffffffffffffffffff1673ffffffffffffffffffffffffffffffffffffffff1673ffffffffffffffffffffffffffffffffffffffff1681526020016001820180546105e590610f48565b80601f016020809104026020016040519081016040528092919081815260200182805461061190610f48565b801561065e5780601f106106335761010080835404028352916020019161065e565b820191906000526020600020905b81548152906001019060200180831161064157829003601f168201915b505050505081526020016002820154815250508152602001906001019061055c565b50505050905090565b610721828260405160240161069f929190610cd2565b6040516020818303038152906040527f9710a9d0000000000000000000000000000000000000000000000000000000007bffffffffffffffffffffffffffffffffffffffffffffffffffffffff19166020820180517bffffffffffffffffffffffffffffffffffffffffffffffffffffffff8381831617835250505050610860565b5050565b6107bf83838360405160240161073d93929190610c8d565b6040516020818303038152906040527fe0e9ad4f000000000000000000000000000000000000000000000000000000007bffffffffffffffffffffffffffffffffffffffffffffffffffffffff19166020820180517bffffffffffffffffffffffffffffffffffffffffffffffffffffffff8381831617835250505050610860565b505050565b61085c82826040516024016107da929190610c5d565b6040516020818303038152906040527f319af333000000000000000000000000000000000000000000000000000000007bffffffffffffffffffffffffffffffffffffffffffffffffffffffff19166020820180517bffffffffffffffffffffffffffffffffffffffffffffffffffffffff8381831617835250505050610860565b5050565b60008151905060006a636f6e736f6c652e6c6f679050602083016000808483855afa5050505050565b82805461089590610f48565b90600052602060002090601f0160209004810192826108b757600085556108fe565b82601f106108d057805160ff19168380011785556108fe565b828001600101855582156108fe579182015b828111156108fd5782518255916020019190600101906108e2565b5b50905061090b919061090f565b5090565b5b80821115610928576000816000905550600101610910565b5090565b600061093f61093a84610dd2565b610dad565b90508281526020810184848401111561095757600080fd5b610962848285610f06565b509392505050565b60008135905061097981611199565b92915050565b600082601f83011261099057600080fd5b81356109a084826020860161092c565b91505092915050565b6000602082840312156109bb57600080fd5b60006109c98482850161096a565b91505092915050565b6000602082840312156109e457600080fd5b600082013567ffffffffffffffff8111156109fe57600080fd5b610a0a8482850161097f565b91505092915050565b6000610a1f8383610bb8565b905092915050565b610a3081610eca565b82525050565b610a3f81610eca565b82525050565b6000610a5082610e13565b610a5a8185610e36565b935083602082028501610a6c85610e03565b8060005b85811015610aa85784840389528151610a898582610a13565b9450610a9483610e29565b925060208a01995050600181019050610a70565b50829750879550505050505092915050565b6000610ac582610e1e565b610acf8185610e52565b9350610adf818560208601610f15565b610ae881611098565b840191505092915050565b6000610afe82610e1e565b610b088185610e63565b9350610b18818560208601610f15565b610b2181611098565b840191505092915050565b6000610b39603483610e63565b9150610b44826110a9565b604082019050919050565b6000610b5c602783610e63565b9150610b67826110f8565b604082019050919050565b6000610b7f602983610e63565b9150610b8a82611147565b604082019050919050565b6000610ba2600083610e47565b9150610bad82611196565b600082019050919050565b6000606083016000830151610bd06000860182610a27565b5060208301518482036020860152610be88282610aba565b9150506040830151610bfd6040860182610c08565b508091505092915050565b610c1181610efc565b82525050565b610c2081610efc565b82525050565b6000610c3182610b95565b9150819050919050565b60006020820190508181036000830152610c558184610a45565b905092915050565b60006040820190508181036000830152610c778185610af3565b9050610c866020830184610a36565b9392505050565b60006060820190508181036000830152610ca78186610af3565b9050610cb66020830185610a36565b8181036040830152610cc88184610af3565b9050949350505050565b60006040820190508181036000830152610cec8185610af3565b9050610cfb6020830184610c17565b9392505050565b60006020820190508181036000830152610d1b81610b2c565b9050919050565b60006020820190508181036000830152610d3b81610b4f565b9050919050565b60006020820190508181036000830152610d5b81610b72565b9050919050565b6000602082019050610d776000830184610c17565b92915050565b6000604082019050610d926000830185610c17565b8181036020830152610da48184610af3565b90509392505050565b6000610db7610dc8565b9050610dc38282610f7a565b919050565b6000604051905090565b600067ffffffffffffffff821115610ded57610dec611069565b5b610df682611098565b9050602081019050919050565b6000819050602082019050919050565b600081519050919050565b600081519050919050565b6000602082019050919050565b600082825260208201905092915050565b600081905092915050565b600082825260208201905092915050565b600082825260208201905092915050565b6000610e7f82610efc565b9150610e8a83610efc565b9250827fffffffffffffffffffffffffffffffffffffffffffffffffffffffffffffffff03821115610ebf57610ebe610fdc565b5b828201905092915050565b6000610ed582610edc565b9050919050565b600073ffffffffffffffffffffffffffffffffffffffff82169050919050565b6000819050919050565b82818337600083830152505050565b60005b83811015610f33578082015181840152602081019050610f18565b83811115610f42576000848401525b50505050565b60006002820490506001821680610f6057607f821691505b60208210811415610f7457610f7361103a565b5b50919050565b610f8382611098565b810181811067ffffffffffffffff82111715610fa257610fa1611069565b5b80604052505050565b6000610fb682610efc565b9150610fc183610efc565b925082610fd157610fd061100b565b5b828206905092915050565b7f4e487b7100000000000000000000000000000000000000000000000000000000600052601160045260246000fd5b7f4e487b7100000000000000000000000000000000000000000000000000000000600052601260045260246000fd5b7f4e487b7100000000000000000000000000000000000000000000000000000000600052602260045260246000fd5b7f4e487b7100000000000000000000000000000000000000000000000000000000600052604160045260246000fd5b6000601f19601f8301169050919050565b7f547279696e6720746f207769746864726177206d6f7265206d6f6e657920746860008201527f616e2074686520636f6e7472616374206861732e000000000000000000000000602082015250565b7f4661696c656420746f207769746864726177206d6f6e65792066726f6d20636f60008201527f6e74726163742e00000000000000000000000000000000000000000000000000602082015250565b7f4d7573742077616974203330207365636f6e6473206265666f7265207761766960008201527f6e6720616761696e2e0000000000000000000000000000000000000000000000602082015250565b50565b6111a281610eca565b81146111ad57600080fd5b5056fea2646970667358221220ab2064aa87f1bf9d29ec7714ce26146e25457dceaea35b8c29100681f6d6b7b264736f6c63430008040033",
  "linkReferences": {},
  "deployedLinkReferences": {}
}